:1070000039C0000098C0000096C0000094C0000085
:1070100092C0000090C000008EC000008CC0000034
:107020008AC0000088C0000086C00000AEC5000015
:1070300082C0000080C000007EC000007CC0000054
:107040007AC0000078C00000F9C1000074C00000E0
:1070500072C0000070C000006EC000006CC0000074
:107060006AC0000068C0000066C0000064C0000084
:1070700062C0000011241FBECFEFD4E0DEBFCDBF41
:1070800083E090E085D480FD12C004B601FE0AC002
:1070900081E02091C5013091C60122343C4D19F0A8
:1070A00080E001C081E094B79D7F94BF11C004B619
:1070B00003FE0AC081E02091C5013091C60122344F
:1070C0003C4D19F080E001C080E094B7977F94BFF9
:1070D00020E030E0F901459154918823B9F04F3F09
:1070E0005F4FA1F084B7877F84BF0FB6F894A8954F
:1070F00080916000886180936000109260000FBEF4
:107100001092C6011092C501F901099511E0A0E0A5
:10711000B1E0E6E7FEE702C005900D92A83AB1079C
:10712000D9F721E0A8EAB1E001C01D92A53CB20761
:10713000E1F735D19EC664CF8823A9F09091F20083
:1071400091110DC09091E8009B7F9093E800909181
:10715000E80092FD06C09EB39111F9CF04C0909152
:10716000F1008150E9CF0895E0EBF1E03581248111
:10717000938182819093AA018093AB01C90190937E
:10718000A8018093A9010895CF92DF92EF92FF9218
:107190001F93CF93DF9300D01F92CDB7DEB79091AE
:1071A000BA018091B0019923D1F0843049F48091E3
:1071B000B101811108C08091B2018F3F21F455C007
:1071C000853009F4A3C08AE08093000183E08093B6
:1071D000B8018091EB0080628093EB00D5C08430D1
:1071E00009F443C028F4813051F08330D9F0CCC089
:1071F000853009F48BC0863009F4B3C0C5C0109146
:10720000B101123008F0C0C0AFDF111109C06091A8
:10721000AA017091AB012091AC01822F90E045D37F
:1072200085E007C08091B101982F9D7F29F49CDFF4
:1072300089E080930001A8C0813009F0A5C0E0E09A
:10724000F0E084918F3F59F01092AC01F093AB01C4
:10725000E093AA018AE08093000185E093C0319613
:10726000E11520E7F20769F78FC08091B101833003
:1072700091F581E08093B901E091B601F091B701F9
:107280008091B201309761F0813009F07DC090911A
:10729000B5018091B4019093AD018093AE0174C0AB
:1072A000811111C082E49CED9093C6018093C501C9
:1072B0009CE088E10FB6F894A895809360000FBE1B
:1072C0009093600061C085919491019609F05CC033
:1072D0001092010159C0811157C08091B2018F3FB6
:1072E00009F052C0C12CD12C7601C701B601DDD204
:1072F00080E8C80ED11CE11CF11CC11420E7D206A5
:10730000E104F10491F71092BA013EC080910201AC
:1073100090910301A091040189839A83AB838091AA
:10732000B2019091B101911107C0833038F5FE018F
:10733000E80FF11D818112C0913031F5813359F090
:1073400020F48033D9F488E509C0803631F08136E5
:10735000A9F48AE803C08EE101C085E98093AF01FA
:1073600013C08091B101833079F48091B201811111
:107370000BC08091B3018093AC0106C08AE080937A
:10738000000188E08093B8010F900F900F90DF917B
:10739000CF911F91FF90EF90DF90CF90089584B729
:1073A000877F84BF0FB6F894A895809160008861AC
:1073B00080936000109260000FBE90E080E80FB6EE
:1073C000F89480936100909361000FBEC1E0C5BF47
:1073D00082E085BFCBD38AB180638AB98BB18063E9
:1073E0008BB9C0936F0083E0809381008BB1806381
:1073F0008F7D8BB9789480910101882311F017D586
:10740000FACF8091B9018111FACF8FE99FE00197FE
:10741000F1F700C0000061D38AB18F7C8AB98BB1CB
:1074200080638BB910926F001092810081E085BF5C
:1074300015BEE091AD01F091AE0109951F920F923A
:107440000FB60F9211248F9380E389B98F910F901B
:107450000FBE0F901F9018955F926F927F928F9240
:107460009F92AF92BF92CF92DF92EF92FF920F93D3
:107470001F93CF93DF938091BD018F77813209F005
:10748000D2C180E389B98091C3019091C4019093E6
:10749000B7018093B6018091BE01833009F47DC1AC
:1074A00058F48130D1F0823009F0BDC18091E800FC
:1074B000877F8093E800EAC0853009F494C108F41E
:1074C0008AC1863009F0AFC18091E800877F809340
:1074D000E80082E08093000196C18091E800877FF8
:1074E0008093E8008091B901882319F04DDE109255
:1074F000B9018091B6019091B701009741F12091B7
:10750000E80022FD04C02EB32111F9CF8CC12091D7
:10751000F1002093B00101979093B7018093B601D9
:10752000E1EBF1E08091F200882381F08091F1009D
:1075300081938091B6019091B70101979093B70123
:107540008093B60121E0E63BF20761F71DDE8091F2
:107550000001853009F092C08091B6019091B70189
:10756000892B21F482E08093000188C08AE1E4DD68
:107570000091AA011091AB01802F8F71DDDDC091C8
:10758000A801D091A9012196C01BD10B8091B10116
:10759000811162C0D695C79568018091AC01E82E33
:1075A000F12C7D2C682E5F2C10E02097B9F1809192
:1075B000F2008823A9F021974091F1005091F10049
:1075C000C701B601D2D11F5F4601570182E0880E84
:1075D000911CA11CB11C75016401103471F40FC021
:1075E0008091E8008B7F8093E8008091E80082FD25
:1075F000E2CF8EB38111F9CF16C12097B1F6602F7B
:10760000772D862D952D81D1209779F2C501B40172
:107610004CD1082D792C6A2C5B2CC6CF8091A80107
:107620009091A9019093AB018093AA0125C080910C
:10763000F2008823A1F021976091F1008091AA01C6
:107640009091AB0104D48091AA019091AB01019675
:107650009093AB018093AA01209749F70DC08091C8
:10766000E8008B7F8093E8008091E80082FDE3CF03
:107670008EB38111F9CFD7C080E15EDD8091E80043
:107680008B7F88C08EB3882309F4CDC08091E80039
:1076900080FFF8CF80910001893091F08A3059F451
:1076A0008091B101813039F49091AA018091AB01B0
:1076B0009093F10002C08091AF018093F10067C008
:1076C0002091AA013091AB01C091A801D091A901EC
:1076D0002196C21BD30B8091B10181112EC0D6958A
:1076E000C795C9012091AC01A22FB0E02197E0F02D
:1076F0002091F200203259F0FC0125913491209321
:10770000F1003093F1000296A11DB11DEFCF209141
:10771000E8002E7F2093E8002091E80020FDECCFC8
:107720002EB32111F9CF7FC08091A8019091A901BA
:107730009093AB018093AA0127C0823029F520974E
:1077400019F18091F200803291F08091AA0190911C
:10775000AB0175D38093F1008091AA019091AB01A8
:1077600001969093AB018093AA012197E8CF809175
:10777000E8008E7F8093E8008091E80080FDE5CFEF
:107780008EB38111F9CF4FC082E0809300018091C8
:10779000E8008E7F8093E80036C08091E800877F04
:1077A0008093E8008091E80080FD04C08EB38111D1
:1077B000F9CF39C08091B8018093F1001092F100A7
:1077C0001092F1001092F100809100018093F1007D
:1077D0001092F100DCCF8091E800877F8093E80071
:1077E0001092B80110C08091E800877F8093E80074
:1077F0008091E80080FD04C08EB38111F9CF13C0E1
:10780000809100015ACFDF91CF911F910F91FF908E
:10781000EF90DF90CF90BF90AF909F908F907F9030
:107820006F905F903DC1DF91CF911F910F91FF90BD
:10783000EF90DF90CF90BF90AF909F908F907F9010
:107840006F905F900895292F30E02230310559F074
:107850002330310569F021303105F9F482E190E0FF
:1078600026E931E01EC08BE190E02BE731E019C042
:10787000882349F0813061F0823079F484E390E02C
:1078800025E031E00EC084E090E027E731E009C058
:107890008AE390E02BE331E004C080E090E020E058
:1078A00030E0FA013183208308950F931F9361150F
:1078B00020E772078105910570F441E08B019C017E
:1078C0000F77112722273327012B022B032B09F0D7
:1078D00040E0242F01C020E020FF14C02FB7F8940F
:1078E00007B600FCFDCFF999FECF33E0FB013093E2
:1078F0005700E89507B600FCFDCF91E19093570043
:10790000E8952FBF1F910F9108950F931F93611555
:1079100020E772078105910570F441E08B019C011D
:107920000F77112722273327012B022B032B09F076
:1079300040E0242F01C020E020FF14C02FB7F894AE
:1079400007B600FCFDCFF999FECF35E0FB0130937F
:107950005700E89507B600FCFDCF91E190935700E2
:10796000E8952FBF1F910F91089507B600FCFDCF3A
:10797000F999FECF21E0FB010A0120935700E89519
:107980001124089521E2FC01209357008491089569
:1079900029E0FC012093570084910895E1E0F0E094
:1079A00089E080935700849108959FB7F89407B6B3
:1079B00000FCFDCFF999FECF809529E0E1E0F0E0F1
:1079C000082E20935700E8959FBF08952091C3018A
:1079D0003091C4012617370748F06115710539F455
:1079E0002091E8002E7F2093E80001C0B901FC013E
:1079F00020E06115710559F18EB38823D1F18530EE
:107A0000D1F18091E80083FD38C08091E80082FDCB
:107A10002AC08091E80080FFECCF8091F20090E0D6
:107A20006115710551F08032910538F42191209350
:107A3000F100615071090196F3CF21E0809709F0C0
:107A400020E08091E8008E7F8093E800D2CF211162
:107A5000D3CF09C08EB3882361F0853061F0809167
:107A6000E80083FD0AC08091E80082FFF3CF80E048
:107A7000089582E0089583E0089581E00895EBEE93
:107A8000F0E0808181608083EDEEF0E01082609311
:107A9000EC0040838091EE00881F8827881F08959E
:107AA0008091BD0187FF0FC08091E80082FD04C076
:107AB0008EB38111F9CF10C08091E8008B7F0AC08E
:107AC0008EB3882349F08091E80080FFF9CF809140
:107AD000E8008E7F8093E800089551D053D0E0EE07
:107AE000F0E0808181608083E8EDF0E080818F7735
:107AF000808319BCE3E6F0E080818160808310928E
:107B0000BC0108953CD03ED08091D8008F778093FF
:107B1000D8008091D80080688093D8008091D800E8
:107B20008F7D8093D80084E089BD86E089BD09B44B
:107B300000FEFDCF1EBA1092BB0142E260E080E081
:107B40009EDF8091E1008E7F8093E1008091E200D2
:107B500081608093E2008091E20088608093E2007F
:107B60008091E0008E7F8093E0000895E3E6F0E0EE
:107B700080818E7F808381E08093BC01C3CF10928F
:107B8000E20008951092E10008951F920F920FB63F
:107B90000F9211242F933F934F935F936F937F9393
:107BA0008F939F93AF93BF93EF93FF938091E100E7
:107BB00080FF16C08091E20080FF12C08091E20039
:107BC0008E7F8093E2008091E20080618093E200EA
:107BD0008091D80080628093D80019BC1EBA26D14B
:107BE0008091E10084FF2EC08091E20084FF2AC0D2
:107BF00084E089BD86E089BD09B400FEFDCF809197
:107C0000D8008F7D8093D8008091E1008F7E809393
:107C1000E1008091E2008F7E8093E2008091E2009B
:107C200081608093E2008091BB01882311F084E0A1
:107C300007C08091E30087FD02C081E001C083E0BE
:107C40008EBBF4D08091E10083FF21C08091E200DF
:107C500083FF1DC08091E100877F8093E10082E077
:107C60008EBB1092BB018091E1008E7F8093E1007A
:107C70008091E2008E7F8093E2008091E20080613B
:107C80008093E20042E260E080E0F9DECFD0FF9135
:107C9000EF91BF91AF919F918F917F916F915F9184
:107CA0004F913F912F910F900FBE0F901F901895FD
:107CB0001F93CF93DF9300D0CDB7DEB7EDEBF1E0AC
:107CC0008091F100819381E0E53CF807C9F7C4DBBE
:107CD0008091E80083FF96C08091BD019091BE0124
:107CE0009630E1F128F4992351F09530B1F08AC033
:107CF000983009F455C0993009F464C083C08D7F71
:107D0000803809F07FC08091E800877F8093E80089
:107D10001092F1001092F1004EC0811173C01091C9
:107D2000BF011F778091E3008078812B8093E3006F
:107D30008091E800877F8093E800B2DE8091E800C0
:107D400080FFFCCF8091E30080688093E3001111F5
:107D500002C082E001C083E08EBB54C080588230F4
:107D600008F050C06091C1017091C201AE014F5F37
:107D70005F4F8091BF019091C00165DDBC01892BEF
:107D800009F440C09091E800977F9093E8008981C2
:107D90009A811CDE8091E8008B7F8093E80032C0DE
:107DA000803881F58091E800877F8093E80080919A
:107DB000BB018093F1008091E8008E7F8093E80002
:107DC0006FDE20C081111EC08091BF019091C00163
:107DD00099270297BCF48091E800877F8093E800A0
:107DE0008091BF018093BB015BDE8091BB0181115B
:107DF00006C08091E30087FD02C081E001C084E0FD
:107E00008EBB14D08091E80083FF0AC08091E80007
:107E1000877F8093E8008091EB0080628093EB0085
:107E20000F900F90DF91CF911F91089508958EB319
:107E3000882321F08091E80083FD3ACF0895F999D5
:107E4000FECF92BD81BDF89A992780B50895262F5F
:107E5000F999FECF92BD81BDF89A019700B4021640
:107E600039F01FBA20BD0FB6F894FA9AF99A0FBEEE
:067E70000895F894FFCF15
:107E7600020120DCFB34034F0072006900670069D1
:107E8600006E0061006C00200050007200750073E7
:107E960000610020006900330020004D004B0033D4
:107EA60000200044004600550000003A03500072CE
:107EB60000750073006100200052006500730065C4
:107EC60000610072006300680020002800700072E4
:107ED60000750073006100330064002E0063006FBC
:107EE600006D00290000000403090409021B0001BB
:107EF600010080320904000000FE0102000921038E
:107F06000000000C10011201100100000020EB031C
:087F1600F02F00000102000140
:107FA00084CCB3CCE2CCEECCF3CCF8CCFECC0895B0
:087FB000089508950895089555
:107FE000DFCFDFCFDFCFDFCFDFCFDFCFDFCFDFCF21
:087FF000DFCFDFCFDFCFDFCFD1
:087FF8000070000010DFFBDC4B
:040000030000700089
:00000001FF
