:1000000093C00000ACC00000AAC00000A8C000005F
:10001000A6C00000A4C00000A2C00000A0C0000054
:100020009EC000009CC000009AC0000085C4000073
:1000300096C0000094C0000092C0000090C0000074
:100040008EC000008CC000008AC0000088C0000084
:1000500086C0000084C0000082C0000010C50000FF
:10006000FBC400007CC000007AC0000078C0000023
:1000700076C0000009023E00020100C032090400FF
:1000800000010202010005240010010424020605FB
:1000900024060001070582030800FF09040100028D
:1000A0000A00000007050402200001070583024042
:1000B000000112011001020000084123420000016A
:1000C0000102DC012A03410072006400750069002E
:1000D0006E006F0020004D00650067006100200089
:1000E000320035003600300020005200330000009E
:1000F0003203410072006400750069006E006F00F9
:10010000200028007700770077002E006100720041
:100110006400750069006E006F002E0063006300CC
:10012000290000000403090411241FBECFEFD2E010
:10013000DEBFCDBF12E0A2E8B2E0EEE7FCE002C015
:1001400005900D92AE39B107D9F722E0AEE9B2E0E1
:1001500001C01D92AB3AB207E1F79AD48EC550CFD9
:100160008091A30287FF0FC08091E80082FD04C048
:100170008BB58111F9CF10C08091E8008B770AC050
:100180008BB5882349F08091E80080FFF9CF8091FA
:10019000E8008E778093E8000895982F953068F5F1
:1001A0009093E900981739F07091EC002091ED00E0
:1001B0005091F00003C0242F762F50E021FD02C0A3
:1001C0009F5FECCF3091EB003E7F3093EB0030919E
:1001D000ED003D7F3093ED003091EB0031603093C6
:1001E000EB007093EC002093ED005093F000209111
:1001F000EE0027FDE5CF80E008958F708093E90041
:1002000081E00895FC019081911102C081E0089580
:100210002481A181B2816381892F8F70853010F094
:1002200080E00895223010F442E001C046E0E8E0AA
:10023000F0E020E0EA17FB0720F42F5FEE0FFF1F2E
:10024000F9CF2295207F422B6295660F660F607C66
:10025000991F9927991F692BA0DF8111D7CFE0CF74
:100260008F929F92AF92BF92CF92DF92EF92FF92C6
:100270000F931F93CF93DF93CDB7DEB7AA970FB637
:10028000F894DEBF0FBECDBF8BB5882309F441C300
:100290001091E9001F709091EC00892F817090FD02
:1002A00080E8182B1092E9008091E80083FF28C3B2
:1002B000E3EAF2E08BEA92E02091F10021938E17BD
:1002C0009F07D1F78091E80083FF1DC180918202D2
:1002D00090E02091A7023091A8022817390709F071
:1002E00012C18091A402813261F020F4803209F4BD
:1002F00041C009C1823209F4E4C0833209F4F9C073
:1003000002C18091A302813A09F0FDC08091E8000A
:10031000877F8093E8008091E80080FFFCCF809188
:10032000960290919702A0919802B09199028093C1
:10033000F100492F5A2F6B2F77274093F100AD0121
:10034000662777274093F1008B2F9927AA27BB2791
:100350008093F10080919A028093F10080919B023A
:100360008093F10080919C028093F1008091E800DD
:100370008E77C6C08091A302813209F0C4C08091FB
:10038000E800877F8093E8008091E80082FD04C048
:100390008BB58111F9CFB7C03091F1002091F100F8
:1003A0009091F1008091F100309396022093970292
:1003B00090939802809399028091F10080939A0221
:1003C0008091F10080939B028091F10080939C02C8
:1003D0008091E8008B778093E800C2DE5B9A1092F0
:1003E000C9001092C8001092CA001EBA1092A00252
:1003F00010929F021ABCC0909602D0909702E09093
:100400009802F0909902C114D104E104F10409F4B6
:1004100056C080919B02813021F0823021F400E2AD
:1004200003C000E301C000E080919A02823009F429
:10043000086080919C02873031F0883031F086303E
:1004400029F4026003C0046001C006604601570140
:10045000B694A79497948794C501B40160587B47DC
:10046000814E9F4FA7019601E6D32150310920FD0F
:1004700004C0211540E1340718F03695279511C0C6
:10048000C11451EED506E104F10469F4C501B401CB
:10049000605C7D4B804F9F4FA7019601CCD32150CC
:1004A000310980E001C082E03093CD002093CC0080
:1004B0000093CA008093C80088E98093C9005B98C4
:1004C00022C08091A3028132F1F48091E800877FFD
:1004D0008093E80045DE8091A5029091A60280936A
:1004E00092029093930280FF02C05F980CC05F9AC3
:1004F0000AC08091A302813231F48091E800877FA5
:100500008093E8002DDE8091E80083FFEBC18091AD
:10051000A3029091A402953009F471C030F4913097
:1005200081F168F0933069F1DDC1983009F491C12F
:10053000993009F49EC1963009F0D4C181C0803849
:1005400021F0823809F0CEC103C08091A1020FC012
:100550008091A7028F70853008F0C4C18093E900B4
:100560008091EB0085FB882780F91092E90090913B
:10057000E800977F9093E8008093F1001092F100DB
:1005800074C1282F2D7F09F0ADC1823009F0AAC1B6
:100590008091A50281112AC08091A7028F702FEF50
:1005A000280F243008F09EC18093E9002091EB00D1
:1005B00020FF1CC0933021F48091EB00806214C0B6
:1005C0009091EB0090619093EB0021E030E0D90135
:1005D00002C0AA0FBB1F8A95E2F7A093EA0010920F
:1005E000EA008091EB0088608093EB001092E900B4
:1005F0008091E800877F8093E800B2DD73C18111AC
:1006000071C10091A5020F778091E3008078802B63
:100610008093E3008091E800877F8093E800A0DD6D
:100620008091E80080FFFCCF8091E3008068809398
:10063000E300011102C082E001C083E08BBD52C122
:100640008058823008F04EC18091A5029091A60298
:100650008C3DB3E09B0709F076C083E08A838AE291
:1006600089834FB7F894DE01139620E03EE051E213
:10067000E32FF0E050935700E49120FF03C0E29590
:10068000EF703F5FEF708E2F90E0EA3010F0C7966A
:1006900001C0C0968D939D932F5F243149F74FBFC2
:1006A0008091E800877F8093E8008091A902909173
:1006B000AA028A32910510F08AE290E040E0FE0141
:1006C0003196009769F12BB5222309F4BCC025307F
:1006D00009F4B9C02091E80023FDB5C02091E800DD
:1006E00022FD2CC02091E80020FFEBCF2091F200EA
:1006F00030E0009751F02830310538F441914093B3
:10070000F10001972F5F3F4FF4CF41E028303105D2
:1007100009F040E02091E8002E772093E800D1CF47
:100720004111D1CF0BC08BB5882309F48CC0853023
:1007300009F489C08091E80083FD85C08091E800BC
:1007400082FFF1CF80C0292F33272230310541F0BD
:100750002330310551F02130310509F0C3C0D4C038
:100760008EE390E0E4E7F0E021C0811108C0E4E20C
:10077000F1E0E4918E2F90E0E4E2F1E014C08130EA
:1007800041F4E0EFF0E0E4918E2F90E0E0EFF0E054
:100790000AC0823009F0A6C0E4ECF0E0E4918E2FAC
:1007A00090E0E4ECF0E0009709F49CC02091E800B0
:1007B000277F2093E8002091A9023091AA02821796
:1007C000930708F49C0140E02115310561F18BB5D8
:1007D0008823C9F18530B9F18091E80083FD33C0E9
:1007E0008091E80082FD2BC08091E80080FFECCF73
:1007F0008091F20090E02115310559F08830910583
:1008000040F444914093F100319621503109019612
:10081000F2CF41E0089709F040E08091E8008E7740
:100820008093E800D1CF4111D2CF09C08BB5882386
:1008300051F0853041F08091E80083FD04C0809143
:10084000E80082FFF3CF8091E8008B778093E80087
:1008500049C0803809F046C08091E800877F8093C6
:10086000E8008091A2028093F1008091E8008E77E9
:10087000C2CE811137C08091A5029091A60299271E
:10088000029784F58091E800877F8093E8000091CB
:10089000A5020093A20264DC011106C08091E3006E
:1008A00087FD02C081E001C084E08BBD8BE0E2E9FE
:1008B000F2E0DF011D928A95E9F782E080938602DB
:1008C00080938B0283E08093900283E892E09ADC2D
:1008D000882341F088E892E095DC882319F08DE8C0
:1008E00092E090DC8091E80083FF0AC08091E800EC
:1008F000877F8093E8008091EB0080628093EB001B
:100900001F701093E90005C082E190E0E2EBF0E097
:100910004DCFAA960FB6F894DEBF0FBECDBFDF91C4
:10092000CF911F910F91FF90EF90DF90CF90BF90EC
:10093000AF909F908F9008951F920F920FB60F92D5
:1009400011242F933F934F935F936F937F938F93D4
:100950009F93AF93BF93EF93FF938091E10080FF4C
:1009600015C08091E20080FF11C08091E2008E7F6F
:100970008093E2008091E20080618093E2008091A8
:10098000D80080628093D80019BC1BBC8091E10024
:1009900084FF2DC08091E20084FF29C084E089BDDE
:1009A00086E089BD09B400FEFDCF8091D8008F7D1F
:1009B0008093D8008091E1008F7E8093E100809148
:1009C000E2008F7E8093E2008091E200816080935C
:1009D000E2008091A202882311F084E007C0809198
:1009E000E30087FD02C081E001C083E08BBD809100
:1009F000E10083FF20C08091E20083FF1CC0809152
:100A0000E100877F8093E10082E08BBD1092A2021B
:100A10008091E1008E7F8093E1008091E2008E7FE3
:100A20008093E2008091E20080618093E20042E0E6
:100A300060E080E0B2DBFF91EF91BF91AF919F91B9
:100A40008F917F916F915F914F913F912F910F9077
:100A50000FBE0F901F9018952F01EEB3F2E031906A
:100A60003092CE00EEBBF798F2012EB23090A00289
:100A700023101895E8E9E093C900F2011895309029
:100A8000CE002F01EAB5F1E03192EABDF2011895EE
:100A900084B7877F84BF0FB6F894A89580916000D3
:100AA000886180936000109260000FBE90E080E843
:100AB0000FB6F89480936100909361000FBE80910F
:100AC00063008E7F8093630081E080939E0210928A
:100AD000E2001092E1008091D8008F778093D800D7
:100AE0008091D80080688093D8008091D8008F7D55
:100AF0008093D80084E089BD86E089BD09B400FEFA
:100B0000FDCF1BBC1092A2021092A10242E060E055
:100B100080E043DB8091E1008E7F8093E100809153
:100B2000E20081608093E2008091E200886080931F
:100B3000E2008091E0008E7F8093E00084E085BD3C
:100B40008AB1886B8AB95F9A5A9A5D9A5C9A78944E
:100B5000D8EB13E001E084DBC0E0F12C8BB58430EE
:100B600009F066C08093E9008091E80082FF0AC026
:100B70009091F200911107C08091E8008B778093EB
:100B8000E80001C090E08091A0022EB3821B809506
:100B90008F779923A9F0891798F0F2E0E091A002ED
:100BA0008091F1008193EF779150D1F78091E80027
:100BB0008B778093E800E093A002D093C90002C035
:100BC0008F3711F05C98C3E08AB590919F02891B22
:100BD000F9F0A89902C08F33C0F01093E90090910A
:100BE000E80090FF12C08F3308F08FE3E0919F027E
:100BF000F1E091919093F1008150D1F78091E8005C
:100C00008E778093E800E0939F025D9883E0F82E52
:100C1000A89B0CC005BBFF2021F0FA94F11001C085
:100C20005D9ACC2319F0C15009F45C9A19DB96CF78
:100C30005D9A5C9A90CFA1E21A2EAA1BBB1BFD0104
:100C40000DC0AA1FBB1FEE1FFF1FA217B307E407AB
:100C5000F50720F0A21BB30BE40BF50B661F771F03
:100C6000881F991F1A9469F76095709580959095E3
:0E0C70009B01AC01BD01CF010895F894FFCFA8
:100C7E0000834000000104200000018208000001F2
:0C0C8E000000000000000000000000005A
:1030000039C0000098C0000096C0000094C00000C5
:1030100092C0000090C000008EC000008CC0000074
:103020008AC0000088C0000086C00000AEC5000055
:1030300082C0000080C000007EC000007CC0000094
:103040007AC0000078C00000F9C1000074C0000020
:1030500072C0000070C000006EC000006CC00000B4
:103060006AC0000068C0000066C0000064C00000C4
:1030700062C0000011241FBECFEFD2E0DEBFCDBF83
:1030800083E090E085D480FD12C004B601FE0AC042
:1030900081E020917F013091800122343C4D19F074
:1030A00080E001C081E094B79D7F94BF11C004B659
:1030B00003FE0AC081E020917F013091800122341B
:1030C0003C4D19F080E001C080E094B7977F94BF39
:1030D00020E030E0F901459154918823B9F04F3F49
:1030E0005F4FA1F084B7877F84BF0FB6F894A8958F
:1030F00080916000886180936000109260000FBE34
:103100001092800110927F01F901099511E0A0E071
:10311000B1E0E6E7FEE302C005900D92A236B107EA
:10312000D9F721E0A2E6B1E001C01D92AF37B207A6
:10313000E1F735D19EC664CF8823A9F09091F200C3
:1031400091110DC09091E8009B7F9093E8009091C1
:10315000E80092FD06C09EB39111F9CF04C0909192
:10316000F1008150E9CF0895EAE6F1E0358124814C
:10317000938182819093640180936501C90190934A
:103180006201809363010895CF92DF92EF92FF92E4
:103190001F93CF93DF9300D01F92CDB7DEB79091EE
:1031A000740180916A019923D1F0843049F48091AF
:1031B0006B01811108C080916C018F3F21F455C0D3
:1031C000853009F4A3C08AE08093000183E08093F6
:1031D00072018091EB0080628093EB00D5C0843057
:1031E00009F443C028F4813051F08330D9F0CCC0C9
:1031F000853009F48BC0863009F4B3C0C5C0109186
:103200006B01123008F0C0C0AFDF111109C060912E
:1032100064017091650120916601822F90E045D391
:1032200085E007C080916B01982F9D7F29F49CDF7A
:1032300089E080930001A8C0813009F0A5C0E0E0DA
:10324000F0E084918F3F59F010926601F093650190
:10325000E09364018AE08093000185E093C0319699
:10326000E11520E3F20769F78FC080916B0183308D
:1032700091F581E080937301E0917001F09171010B
:1032800080916C01309761F0813009F07DC09091A0
:103290006F0180916E01909367018093680174C003
:1032A000811111C082E49CED9093800180937F0195
:1032B0009CE088E10FB6F894A895809360000FBE5B
:1032C0009093600061C085919491019609F05CC073
:1032D0001092010159C0811157C080916C018F3F3C
:1032E00009F052C0C12CD12C7601C701B601DDD244
:1032F00080E8C80ED11CE11CF11CC11420E3D206E9
:10330000E104F10491F7109274013EC08091020132
:1033100090910301A091040189839A83AB838091EA
:103320006C0190916B01911107C0833038F5FE015B
:10333000E80FF11D818112C0913031F5813359F0D0
:1033400020F48033D9F488E509C0803631F0813625
:10335000A9F489E803C08EE101C084E98093690182
:1033600013C080916B01833079F480916C018111DD
:103370000BC080916D018093660106C08AE0809346
:10338000000188E0809372010F900F900F90DF9101
:10339000CF911F91FF90EF90DF90CF90089584B769
:1033A000877F84BF0FB6F894A895809160008861EC
:1033B00080936000109260000FBE90E080E80FB62E
:1033C000F89480936100909361000FBEC1E0C5BF87
:1033D00082E085BFCBD38AB180638AB98BB1806329
:1033E0008BB9C0936F0083E0809381008BB18063C1
:1033F0008F7D8BB9789480910101882311F017D5C6
:10340000FACF809173018111FACF8FE99FE0019784
:10341000F1F700C0000061D38AB18F7C8AB98BB10B
:1034200080638BB910926F001092810081E085BF9C
:1034300015BEE0916701F091680109951F920F9206
:103440000FB60F9211248F9380E389B98F910F905B
:103450000FBE0F901F9018955F926F927F928F9280
:103460009F92AF92BF92CF92DF92EF92FF920F9313
:103470001F93CF93DF93809177018F77813209F08B
:10348000D2C180E389B980917D0190917E019093B2
:1034900071018093700180917801833009F47DC1BE
:1034A00058F48130D1F0823009F0BDC18091E8003C
:1034B000877F8093E800EAC0853009F494C108F45E
:1034C0008AC1863009F0AFC18091E800877F809380
:1034D000E80082E08093000196C18091E800877F38
:1034E0008093E80080917301882319F04DDE1092DB
:1034F00073018091700190917101009741F12091C9
:10350000E80022FD04C02EB32111F9CF8CC1209117
:10351000F10020936A0101979093710180937001EB
:10352000EBE6F1E08091F200882381F08091F100D8
:103530008193809170019091710101979093710135
:103540008093700121E0E037F20761F71DDE809182
:103550000001853009F092C0809170019091710155
:10356000892B21F482E08093000188C08AE1E4DDA8
:103570000091640110916501802F8F71DDDDC09194
:103580006201D09163012196C01BD10B80916B0128
:10359000811162C0D695C795680180916601E82EB9
:1035A000F12C7D2C682E5F2C10E02097B9F18091D2
:1035B000F2008823A9F021974091F1005091F10089
:1035C000C701B601D2D11F5F4601570182E0880EC4
:1035D000911CA11CB11C75016401103471F40FC061
:1035E0008091E8008B7F8093E8008091E80082FD65
:1035F000E2CF8EB38111F9CF16C12097B1F6602FBB
:10360000772D862D952D81D1209779F2C501B401B2
:103610004CD1082D792C6A2C5B2CC6CF809162018D
:1036200090916301909365018093640125C080911E
:10363000F2008823A1F021976091F100809164014C
:103640009091650104D48091640190916501019687
:103650009093650180936401209749F70DC0809194
:10366000E8008B7F8093E8008091E80082FDE3CF43
:103670008EB38111F9CFD7C080E15EDD8091E80083
:103680008B7F88C08EB3882309F4CDC08091E80079
:1036900080FFF8CF80910001893091F08A3059F491
:1036A00080916B01813039F49091640180916501C2
:1036B0009093F10002C0809169018093F10067C08E
:1036C0002091640130916501C0916201D091630144
:1036D0002196C21BD30B80916B0181112EC0D69510
:1036E000C795C90120916601A22FB0E02197E0F0B3
:1036F0002091F200203259F0FC0125913491209361
:10370000F1003093F1000296A11DB11DEFCF209181
:10371000E8002E7F2093E8002091E80020FDECCF08
:103720002EB32111F9CF7FC0809162019091630186
:10373000909365018093640127C0823029F520971A
:1037400019F18091F200803291F0809164019091A2
:10375000650175D38093F1008091640190916501BA
:10376000019690936501809364012197E8CF809141
:10377000E8008E7F8093E8008091E80080FDE5CF2F
:103780008EB38111F9CF4FC082E080930001809108
:10379000E8008E7F8093E80036C08091E800877F44
:1037A0008093E8008091E80080FD04C08EB3811111
:1037B000F9CF39C0809172018093F1001092F1002D
:1037C0001092F1001092F100809100018093F100BD
:1037D0001092F100DCCF8091E800877F8093E800B1
:1037E0001092720110C08091E800877F8093E800FA
:1037F0008091E80080FD04C08EB38111F9CF13C021
:10380000809100015ACFDF91CF911F910F91FF90CE
:10381000EF90DF90CF90BF90AF909F908F907F9070
:103820006F905F903DC1DF91CF911F910F91FF90FD
:10383000EF90DF90CF90BF90AF909F908F907F9050
:103840006F905F900895292F30E02230310559F0B4
:103850002330310569F021303105F9F482E190E03F
:1038600020E531E01EC08BE190E025E331E019C096
:10387000882349F0813061F0823079F488E190E06A
:1038800025E031E00EC084E090E021E331E009C0A2
:1038900080E190E02FE131E004C080E090E020E0A2
:1038A00030E0FA013183208308950F931F9361154F
:1038B00020E372078105910570F441E08B019C01C2
:1038C0000F77112722273327012B022B032B09F017
:1038D00040E0242F01C020E020FF14C02FB7F8944F
:1038E00007B600FCFDCFF999FECF33E0FB01309322
:1038F0005700E89507B600FCFDCF91E19093570083
:10390000E8952FBF1F910F9108950F931F93611595
:1039100020E372078105910570F441E08B019C0161
:103920000F77112722273327012B022B032B09F0B6
:1039300040E0242F01C020E020FF14C02FB7F894EE
:1039400007B600FCFDCFF999FECF35E0FB013093BF
:103950005700E89507B600FCFDCF91E19093570022
:10396000E8952FBF1F910F91089507B600FCFDCF7A
:10397000F999FECF21E0FB010A0120935700E89559
:103980001124089521E2FC012093570084910895A9
:1039900029E0FC012093570084910895E1E0F0E0D4
:1039A00089E080935700849108959FB7F89407B6F3
:1039B00000FCFDCFF999FECF809529E0E1E0F0E031
:1039C000082E20935700E8959FBF089520917D0110
:1039D00030917E012617370748F06115710539F4DB
:1039E0002091E8002E7F2093E80001C0B901FC017E
:1039F00020E06115710559F18EB38823D1F185302E
:103A0000D1F18091E80083FD38C08091E80082FD0B
:103A10002AC08091E80080FFECCF8091F20090E016
:103A20006115710551F08032910538F42191209390
:103A3000F100615071090196F3CF21E0809709F000
:103A400020E08091E8008E7F8093E800D2CF2111A2
:103A5000D3CF09C08EB3882361F0853061F08091A7
:103A6000E80083FD0AC08091E80082FFF3CF80E088
:103A7000089582E0089583E0089581E00895EBEED3
:103A8000F0E0808181608083EDEEF0E01082609351
:103A9000EC0040838091EE00881F8827881F0895DE
:103AA0008091770187FF0FC08091E80082FD04C0FC
:103AB0008EB38111F9CF10C08091E8008B7F0AC0CE
:103AC0008EB3882349F08091E80080FFF9CF809180
:103AD000E8008E7F8093E800089551D053D0E0EE47
:103AE000F0E0808181608083E8EDF0E080818F7775
:103AF000808319BCE3E6F0E08081816080831092CE
:103B0000760108953CD03ED08091D8008F77809385
:103B1000D8008091D80080688093D8008091D80028
:103B20008F7D8093D80084E089BD86E089BD09B48B
:103B300000FEFDCF1EBA1092750142E260E080E007
:103B40009EDF8091E1008E7F8093E1008091E20012
:103B500081608093E2008091E20088608093E200BF
:103B60008091E0008E7F8093E0000895E3E6F0E02E
:103B700080818E7F808381E080937601C3CF109215
:103B8000E20008951092E10008951F920F920FB67F
:103B90000F9211242F933F934F935F936F937F93D3
:103BA0008F939F93AF93BF93EF93FF938091E10027
:103BB00080FF16C08091E20080FF12C08091E20079
:103BC0008E7F8093E2008091E20080618093E2002A
:103BD0008091D80080628093D80019BC1EBA26D18B
:103BE0008091E10084FF2EC08091E20084FF2AC012
:103BF00084E089BD86E089BD09B400FEFDCF8091D7
:103C0000D8008F7D8093D8008091E1008F7E8093D3
:103C1000E1008091E2008F7E8093E2008091E200DB
:103C200081608093E20080917501882311F084E027
:103C300007C08091E30087FD02C081E001C083E0FE
:103C40008EBBF4D08091E10083FF21C08091E2001F
:103C500083FF1DC08091E100877F8093E10082E0B7
:103C60008EBB109275018091E1008E7F8093E10000
:103C70008091E2008E7F8093E2008091E20080617B
:103C80008093E20042E260E080E0F9DECFD0FF9175
:103C9000EF91BF91AF919F918F917F916F915F91C4
:103CA0004F913F912F910F900FBE0F901F9018953D
:103CB0001F93CF93DF9300D0CDB7DEB7E7E7F1E0F6
:103CC0008091F100819381E0EF37F807C9F7C4DBF9
:103CD0008091E80083FF96C08091770190917801F0
:103CE0009630E1F128F4992351F09530B1F08AC073
:103CF000983009F455C0993009F464C083C08D7FB1
:103D0000803809F07FC08091E800877F8093E800C9
:103D10001092F1001092F1004EC0811173C0109109
:103D200079011F778091E3008078812B8093E300F5
:103D30008091E800877F8093E800B2DE8091E80000
:103D400080FFFCCF8091E30080688093E300111135
:103D500002C082E001C083E08EBB54C08058823034
:103D600008F050C060917B0170917C01AE014F5F03
:103D70005F4F8091790190917A0165DDBC01892BBB
:103D800009F440C09091E800977F9093E800898102
:103D90009A811CDE8091E8008B7F8093E80032C01E
:103DA000803881F58091E800877F8093E8008091DA
:103DB00075018093F1008091E8008E7F8093E80088
:103DC0006FDE20C081111EC08091790190917A012F
:103DD00099270297BCF48091E800877F8093E800E0
:103DE00080917901809375015BDE8091750181116D
:103DF00006C08091E30087FD02C081E001C084E03D
:103E00008EBB14D08091E80083FF0AC08091E80047
:103E1000877F8093E8008091EB0080628093EB00C5
:103E20000F900F90DF91CF911F91089508958EB359
:103E3000882321F08091E80083FD3ACF0895F99915
:103E4000FECF92BD81BDF89A992780B50895262F9F
:103E5000F999FECF92BD81BDF89A019700B4021680
:103E600039F01FBA20BD0FB6F894FA9AF99A0FBE2E
:063E70000895F894FFCF55
:103E7600020120DCFB180341007200640075006932
:103E8600006E006F00200044004600550000001040
:103E960003410072006400750069006E006F000047
:103EA600000403090409021B000101008032090411
:103EB600000000FE0102000921030000000C1001B1
:103EC6001201100100000020EB03EF2F0000010299
:023ED6000001E9
:103FA00084CCB3CCE2CCEECCF3CCF8CCFECC0895F0
:083FB000089508950895089595
:103FE000DFCFDFCFDFCFDFCFDFCFDFCFDFCFDFCF61
:083FF000DFCFDFCFDFCFDFCF11
:083FF8000030000010DFFBDCCB
:0400000300003000C9
:00000001FF
