:1000000098C00000B1C00000AFC00000ADC000004B
:10001000ABC00000A9C00000A7C00000A5C0000040
:10002000A3C00000A1C000009FC0000002C50000E6
:100030009BC0000099C0000097C0000095C0000060
:1000400093C0000091C000008FC000008DC0000070
:100050008BC0000089C0000087C000008DC5000073
:1000600078C5000081C000007FC000007DC0000096
:100070007BC0000009023E00020100C032090400FA
:1000800000010202010005240010010424020605FB
:1000900024060001070582030800FF09040100028D
:1000A0000A00000007050402200001070583024042
:1000B00000011201100102000008992C0200000149
:1000C000010203012C034F00720069006700690000
:1000D0006E0061006C00200050007200750073001B
:1000E000610020006900330020004D004B00330008
:1000F00000003A0350007200750073006100200098
:1001000052006500730065006100720063006800C2
:100110002000280070007200750073006100330039
:1001200064002E0063006F006D00290000000403CE
:10013000090411241FBECFEFD4E0DEBFCDBF12E013
:10014000A2E8B2E0E8E8FDE002C005900D92AE3909
:10015000B107D9F722E0AEE9B2E001C01D92AB3A97
:10016000B207E1F712D50EC64BCF8091A30287FFED
:100170000FC08091E80082FD04C08BB58111F9CFDA
:1001800010C08091E8008B770AC08BB5882349F0B6
:100190008091E80080FFF9CF8091E8008E7780930E
:1001A000E8000895982F953068F59093E900981726
:1001B00039F07091EC002091ED005091F00003C0F7
:1001C000242F762F50E021FD02C09F5FECCF3091AD
:1001D000EB003E7F3093EB003091ED003D7F30939C
:1001E000ED003091EB0031603093EB007093EC0048
:1001F0002093ED005093F0002091EE0027FDE5CF15
:1002000080E008958F708093E90081E00895FC01FB
:100210009081911102C081E008952481A181B28171
:100220006381892F8F70853010F080E0089522302F
:1002300010F442E001C046E0E8E0F0E020E0EA1718
:10024000FB0720F42F5FEE0FFF1FF9CF2295207FD1
:10025000422B6295660F660F607C991F9927991F44
:10026000692BA0DF8111D7CFE0CF2091A902309177
:10027000AA022617370748F06115710539F4209155
:10028000E8002E772093E80001C0B901FC0120E0CE
:100290006115710559F18BB58823D1F18530D1F104
:1002A0008091E80083FD38C08091E80082FD2AC07B
:1002B0008091E80080FFECCF8091F20090E0611522
:1002C000710551F08830910538F421912093F100A7
:1002D000615071090196F3CF21E0089709F020E001
:1002E0008091E8008E778093E800D2CF2111D3CFA0
:1002F00009C08BB5882361F0853061F08091E800FA
:1003000083FD0AC08091E80082FFF3CF80E008956A
:1003100082E0089583E0089581E008956F927F92CE
:100320008F929F92AF92BF92CF92DF92EF92FF9205
:100330000F931F93CF93DF93CDB7DEB7AB970FB675
:10034000F894DEBF0FBECDBF6DB67EB68BB58823E9
:1003500009F455C38091E9008F702091EC00922F31
:10036000917020FD90E8982B9BA71092E900809156
:10037000E80083FF3AC3E3EAF2E08091F100819361
:1003800022E0EB3AF207C9F78091E80083FF1DC134
:100390008091820290E02091A7023091A802281754
:1003A000390709F012C18091A402813261F020F472
:1003B000803209F441C009C1823209F4E4C08332B9
:1003C00009F4F9C002C18091A302813A09F0FDC08D
:1003D0008091E800877F8093E8008091E80080FFAB
:1003E000FCCF8091960290919702A0919802B091D3
:1003F00099028093F100492F5A2F6B2F7727409352
:10040000F100AD01662777274093F1008B2F9927E4
:10041000AA27BB278093F10080919A028093F10074
:1004200080919B028093F10080919C028093F10067
:100430008091E8008E77C6C08091A302813209F0D6
:10044000C4C08091E800877F8093E8008091E80035
:1004500082FD04C08BB58111F9CFB7C03091F10096
:100460002091F1009091F1008091F100309396027B
:100470002093970290939802809399028091F100C3
:1004800080939A028091F10080939B028091F10009
:1004900080939C028091E8008B778093E80065DE72
:1004A0005B9A1092C9001092C8001092CA001EBA3E
:1004B0001092A00210929F021ABCC0909602D09097
:1004C0009702E0909802F0909902C114D104E104DF
:1004D000F10409F456C080919B02813021F08230F2
:1004E00021F410E203C010E301C010E080919A02F1
:1004F000823009F4186080919C02873031F0883096
:1005000031F0863029F4126003C0146001C0166017
:1005100046015701B694A79497948794C501B401F6
:1005200060587B47814E9F4FA701960109D4215007
:10053000310920FD04C0211540E1340718F036953B
:10054000279511C0C11451EED506E104F10469F4F8
:10055000C501B401605C7D4B804F9F4FA7019601A0
:10056000EFD32150310980E001C082E03093CD000B
:100570002093CC001093CA008093C80088E9809330
:10058000C9005B9822C08091A3028132F1F480916E
:10059000E800877F8093E800E8DD8091A5029091D4
:1005A000A602809392029093930280FF02C05F980C
:1005B0000CC05F9A0AC08091A302813231F480910D
:1005C000E800877F8093E800D0DD8091E80083FF1A
:1005D000FEC18091A3029091A402953009F46EC0EF
:1005E00030F4913081F168F0933069F1F0C19830C6
:1005F00009F4A1C1993009F4B1C1963009F0E7C1FD
:100600007EC0803821F0823809F0E1C103C08091BA
:10061000A1020FC08091A7028F70853008F0D7C16A
:100620008093E9008091EB0085FB882780F9109288
:10063000E9009091E800977F9093E8008093F100A3
:100640001092F10084C1282F2D7F09F0C0C18230A3
:1006500009F0BDC18091A50281112AC08091A70235
:100660008F702FEF280F243008F0B1C18093E9007C
:100670002091EB0020FF1CC0933021F48091EB000F
:10068000806214C09091EB0090619093EB0021E0A8
:1006900030E0D90102C0AA0FBB1F8A95E2F7A093F0
:1006A000EA001092EA008091EB0088608093EB00F2
:1006B0001092E9008091E800877F4CC1811187C1C9
:1006C0001091A5021F778091E3008078812B8093A1
:1006D000E3008091E800877F8093E80046DD809109
:1006E000E80080FFFCCF8091E30080688093E30006
:1006F000111102C082E001C083E08BBD68C1805847
:10070000823008F064C18091A5029091A6028C3DD0
:10071000B3E09B0771F583E08A838AE289834FB750
:10072000F894DE01139620E03EE051E2E32FF0E082
:1007300050935700E49120FF03C0E295EF703F5FB4
:10074000EF708E2F90E0EA3010F0C79601C0C0968F
:100750008D939D932F5F243149F74FBF8091E8001F
:10076000877F8093E8006AE270E0CE0101967DDD2C
:10077000DCC0292F33272230310541F023303105E9
:1007800051F02130310509F022C134C18EE390E0EF
:10079000E4E7F0E07DC0811108C0EEE2F1E0E49111
:1007A0008E2F90E0EEE2F1E070C0813041F4E2EF94
:1007B000F0E0E4918E2F90E0E2EFF0E066C082304E
:1007C00041F4E4ECF0E0E4918E2F90E0E4ECF0E012
:1007D0005CC0833009F0FBC0FE0131967F015F01F0
:1007E00000E011E0902E6801DA94C801A1D28F3F99
:1007F00069F08F77D5018D935D010F5F1F4F003238
:10080000B1E01B0779F790E2992E07C0002309F4A5
:10081000DEC0F701EC0DFD1D8083692D70E06F5F78
:100820007F4F660F771F0DB71EB7EDB7FEB7E61BFC
:10083000F70B0FB6F894FEBF0FBEEDBF8DB79EB796
:10084000019623E0DC0111962C931197292D220F9C
:100850002E5F21831296F701219130E02D933D9375
:100860002E2F2E192915C0F32091E800277F209301
:10087000E800FBDC8091E8008B778093E8000FB6FE
:10088000F8941EBF0FBE0DBFA2C0009709F49FC011
:100890002091E800277F2093E8002091A902309161
:1008A000AA028217930708F49C0140E02115310544
:1008B00061F18BB58823C9F18530B9F18091E800E9
:1008C00083FD33C08091E80082FD2BC08091E80059
:1008D00080FFECCF8091F20090E02115310559F0B6
:1008E0008830910540F444914093F10031962150B5
:1008F00031090196F2CF41E0089709F040E080917C
:10090000E8008E778093E800D1CF4111D2CF09C0A3
:100910008BB5882351F0853041F08091E80083FD4C
:1009200004C08091E80082FFF3CF8091E8008B77CC
:100930008093E8004CC0803809F049C08091E800FD
:10094000877F8093E8008091A2028093F1008091DC
:10095000E8008E778093E80008DC39C0811137C049
:100960008091A5029091A6029927029784F5809123
:10097000E800877F8093E8001091A5021093A202FF
:10098000F4DB111106C08091E30087FD02C081E015
:1009900001C084E08BBD8BE0E2E9F2E0DF011D9253
:1009A0008A95E9F782E08093860280938B0283E048
:1009B0008093900283E892E02ADC882341F088E863
:1009C00092E025DC882319F08DE892E020DC80910C
:1009D000E80083FF0AC08091E800877F8093E800E9
:1009E0008091EB0080628093EB008BA58F708093E9
:1009F000E90005C082E190E0E2EBF0E049CF0FB6FC
:100A0000F8947EBE0FBE6DBEAB960FB6F894DEBFF7
:100A10000FBECDBFDF91CF911F910F91FF90EF904F
:100A2000DF90CF90BF90AF909F908F907F906F900E
:100A300008951F920F920FB60F9211242F933F9398
:100A40004F935F936F937F938F939F93AF93BF93D6
:100A5000EF93FF938091E10080FF15C08091E20049
:100A600080FF11C08091E2008E7F8093E200809130
:100A7000E20080618093E2008091D80080628093E0
:100A8000D80019BC1BBC8091E10084FF2DC080916F
:100A9000E20084FF29C084E089BD86E089BD09B4F5
:100AA00000FEFDCF8091D8008F7D8093D80080918B
:100AB000E1008F7E8093E1008091E2008F7E809341
:100AC000E2008091E20081608093E2008091A202C6
:100AD000882311F084E007C08091E30087FD02C005
:100AE00081E001C083E08BBD8091E10083FF20C0E5
:100AF0008091E20083FF1CC08091E100877F80939A
:100B0000E10082E08BBD1092A2028091E1008E7F15
:100B10008093E1008091E2008E7F8093E2008091DB
:100B2000E20080618093E20042E060E080E03ADB36
:100B3000FF91EF91BF91AF919F918F917F916F91B5
:100B40005F914F913F912F910F900FBE0F901F908B
:100B500018952F01EEB3F2E031903092CE00EEBB4B
:100B6000F798F2012EB23090A00223101895E8E910
:100B7000E093C900F20118953090CE002F01EAB53C
:100B8000F1E03192EABDF201189584B7877F84BF06
:100B90000FB6F894A89580916000886180936000FA
:100BA000109260000FBE90E080E80FB6F89480933A
:100BB0006100909361000FBE809163008E7F8093EF
:100BC000630081E080939E021092E2001092E100A7
:100BD0008091D8008F778093D8008091D80080686A
:100BE0008093D8008091D8008F7D8093D80084E0D6
:100BF00089BD86E089BD09B400FEFDCF1BBC109203
:100C0000A2021092A10242E060E080E0CBDA809183
:100C1000E1008E7F8093E1008091E200816080930B
:100C2000E2008091E20088608093E2008091E00021
:100C30008E7F8093E00084E085BD8AB1886B8AB99D
:100C40005F9A5A9A5D9A5C9A7894D8EB13E001E027
:100C500065DBC0E0F12C8BB5843009F066C0809371
:100C6000E9008091E80082FF0AC09091F2009111A2
:100C700007C08091E8008B778093E80001C090E086
:100C80008091A0022EB3821B80958F779923A9F0C3
:100C9000891798F0F2E0E091A0028091F100819331
:100CA000EF779150D1F78091E8008B778093E8003F
:100CB000E093A002D093C90002C08F3711F05C9876
:100CC000C3E08AB590919F02891BF9F0A89902C0F0
:100CD0008F33C0F01093E9009091E80090FF12C0AC
:100CE0008F3308F08FE3E0919F02F1E091919093B0
:100CF000F1008150D1F78091E8008E778093E80071
:100D0000E0939F025D9883E0F82EA89B0CC005BB82
:100D1000FF2021F0FA94F11001C05D9ACC2319F064
:100D2000C15009F45C9AFADA96CF5D9A5C9A90CF3A
:100D3000F999FECF92BD81BDF89A992780B50895A3
:100D4000A1E21A2EAA1BBB1BFD010DC0AA1FBB1FCF
:100D5000EE1FFF1FA217B307E407F50720F0A21B41
:100D6000B30BE40BF50B661F771F881F991F1A94AE
:100D700069F760957095809590959B01AC01BD01D8
:080D8000CF010895F894FFCFA4
:100D880000834000000104200000018208000001E7
:0C0D98000000000000000000000000004F
:00000001FF
